:020000040800F2
:10000000C826002021020008F1160008D7130008B6
:1000100075160008EB040008092500080000000020
:10002000000000000000000000000000890100083E
:10003000ED04000800000000CD010008751F000855
:100040003B0200083B0200083B0200083B0200089C
:100050003B0200083B0200083B0200083B0200088C
:100060003B0200083B0200083B0200083B0200087C
:100070003B0200083B0200083B0200083B0200086C
:100080003B0200083B0200083B0200083B0200085C
:100090003B0200083B0200083B0200083B0200084C
:1000A0003B0200083B0200083B0200083B0200083C
:1000B0003B0200083B020008F11F00083B02000859
:1000C0003B0200083B0200083B0200083B0200081C
:1000D0003B0200083B0200083B0200083B0200080C
:1000E0003B0200083B0200083B02000800F002F857
:1000F00000F03AF80AA090E8000C82448344AAF188
:100100000107DA4501D100F02FF8AFF2090EBAE885
:100110000F0013F0010F18BFFB1A43F0010318473B
:10012000E448000004490000103A24BF78C878C1B0
:10013000FAD8520724BF30C830C144BF04680C60ED
:10014000704700000023002400250026103A28BF35
:1001500078C1FBD8520728BF30C148BF0B60704739
:100160001FB51FBD10B510BD00F08AF91146FFF78D
:10017000F7FF02F029FB00F0A8F903B4FFF7F2FF44
:1001800003BC00F0ABF90000224B19680868B0E826
:10019000F00F80F30988BFF36F8F4FF0000080F3FA
:1001A00011884EF00D0E70470000000006480068F0
:1001B000006880F3088862B661B6BFF34F8FBFF363
:1001C0006F8F00DF00BF00BF08ED00E0EFF3098094
:1001D000BFF36F8F0F4B1A6820E9F00F106008B55E
:1001E0004FF0500080F31188BFF34F8FBFF36F8F34
:1001F00003F070FA4FF0000080F31188BDE808406A
:1002000019680868B0E8F00F80F30988BFF36F8FB2
:10021000704700BF20000020EFF30580704700000A
:100220000948804709480047FEE7FEE7FEE7FEE78A
:10023000FEE7FEE7FEE7FEE7FEE7FEE704480549C6
:10024000054A064B70470000ED1F0008ED0000084E
:10025000C8200020C8260020C8220020C822002074
:10026000032A40F2308010F0030C00F0158011F8E2
:10027000013BBCF1020F624498BF11F801CB00F8BA
:10028000013B38BF11F8013BA2F1040298BF00F80E
:1002900001CB38BF00F8013B11F0030300F0978059
:1002A000083AC0F0088051F8043B083A51F804CBF2
:1002B000A0E80810F5E7121D5CBF51F8043B40F8B8
:1002C000043BAFF30080D20724BF11F8013B11F8C3
:1002D00001CB48BF11F8012B24BF00F8013B00F807
:1002E00001CB48BF00F8012B704702F0FF0343EA3F
:1002F000032242EA024200F09EB84FF0000200B52D
:10030000134694469646203922BFA0E80C50A0E838
:100310000C50B1F12001BFF4F7AF090728BFA0E8E6
:100320000C5048BF0CC05DF804EB890028BF40F8B2
:10033000042B08BF704748BF20F8022B11F0804FF4
:1003400018BF00F8012B70474FF0013C50F8042B08
:1003500051F8043B9A4221D1A2EB0C03934313EAD8
:10036000CC1317D150F8042B51F8043B9A4215D105
:10037000A2EB0C03934313EACC130BD150F8042BDC
:1003800051F8043B9A4209D1A2EB0C03934313EAC0
:10039000CC13DBD04FF00000704700BFD01A01BA79
:1003A000B1FA81F101F0180122FA01F0CB40C1F15C
:1003B0002001DBB2C0B2C01A2CFA01F3D11A91436A
:1003C00011EAC311E6D1704770477047704710B506
:1003D000203AC0F00B80B1E81850203AA0E818503D
:1003E000B1E81850A0E81850BFF4F5AF5FEA027CFE
:1003F00024BFB1E81850A0E8185044BF18C918C06D
:10040000BDE810405FEA827C24BF51F8043B40F80D
:10041000043B08BF7047D20728BF31F8023B48BFF2
:1004200011F8012B28BF20F8023B48BF00F8012B30
:1004300070474FF000020429C0F0128010F0030C46
:100440003FF45DAFCCF1040CBCF1020F18BF00F813
:10045000012BA8BF20F8022BA1EB0C01FFF74FBF27
:100460005FEAC17C24BF00F8012B00F8012B48BFD4
:1004700000F8012B704700000048704764200020FE
:100480007546FFF7F9FFAE4605006946534620F072
:100490000700854618B020B5FFF7D0FEBDE8204024
:1004A0004FF000064FF000074FF000084FF0000B30
:1004B00021F00701AC46ACE8C009ACE8C009ACE8E3
:1004C000C009ACE8C0098D46704710B50446AFF3CB
:1004D00000802046BDE81040FFF74FBE01491820BC
:1004E000ABBEFEE7260002007047FEE77047000043
:1004F00008B50024114E124D8DF80040671E3A4693
:100500006946706803F02AFB0128F8D19DF80000C5
:100510000128F4D18DF80040286818B1006808B1AE
:10052000804707E001F0E6F80021082305A208460D
:1005300001F0F0FB01F0A4FCE1E700000000002066
:10054000C80000204552524F5200000072B6FEE72C
:1005500070B5044600F008F90546601C02D0044856
:100560000078044400F000F9401BA042FAD370BDAB
:10057000100000202DE9F84FDFF8B8910024A9F110
:10058000040B23460F2709F1040AABF1040EC9E05E
:100590000125A5402A40AA427DD1674ED1F804C06A
:1005A000ACEB0608B44532D014DCBCF1030F3AD0F2
:1005B00009DCBCF1000F2AD0BCF1010F1CD0BCF14A
:1005C000020F31D11DE0BCF1110F17D0BCF1120F99
:1005D0002AD119E0B8F5881F19D006DCB8F5803F9C
:1005E00015D0B8F5801F1FD111E0B8F5001F0ED04F
:1005F000B8F5041F18D10AE0CB6815E0CB681B1DC5
:1006000012E0CB6808330FE0CB680C330CE08B684A
:100610002BB1012B4FF0080303D0456104E0042304
:1006200002E0056100E00023FF2A01D8064601E050
:1006300000F104064FEA840501D9A5F12005D6F89A
:10064000008007FA05FC28EA0C0803FA05F548EAD9
:100650000508C6F800804D68ED0062D5374DAE69DB
:1006600046F00106AE61AD6924F0030605F0010510
:100670000095334D06EB050CDCF80850A607360F45
:1006800007FA06F825EA0805DFF8B880404503D1E7
:100690004FF0000817E044E0DFF8AC80404502D19D
:1006A0004FF001080FE0DFF8A480404502D14FF081
:1006B000020808E0DFF89880404502D14FF00308B7
:1006C00001E04FF0040808FA06F848EA0508CCF8FB
:1006D00008804D68D9F80060ED024D4601D51643FB
:1006E00000E096432E604D68DAF80060AD02554692
:1006F00001D5164300E096432E604D68DBF800609C
:10070000AD035D4601D5164300E096432E604D686B
:10071000DEF80060ED03754601D5164300E0964310
:100720002E60641C0D682A46E5407FF431AFBDE8B9
:10073000F88F000008040140000011100010024072
:100740000000014000080140000C01400010014081
:10075000001401408068084000D0012070470AB1B1
:10076000016170470904FBE7014880687047000099
:1007700010000020024881680278114481607047AF
:1007800010000020074810B5016841F01001016019
:10079000032000F0A7F80F2000F006F800F050F852
:1007A000002010BD0020024030B505461F4887B02C
:1007B000C16941F00401C161C06906A900F00400EB
:1007C000009001A800F036F90498B0B100F052F999
:1007D00040001749174AB0FBF1F11748491E026063
:1007E000416040F2E7320021C0E90321816081616C
:1007F00000F066FB040003D015E000F03BF9E8E7E9
:100800000D4800F09FFB04000DD11E2000F03CF8C5
:10081000102D07D2002229461E2000F043F8074879
:10082000056000E0012407B0204630BD0010024002
:1008300040420F0000080040180100201400002072
:100840000F4808B5816941F001018161816901F0BA
:1008500001010091C16941F08051C161C06900226C
:1008600000F0805000900F21901E00F01BF805480A
:10087000416821F0E06141F00071416008BD000075
:100880000010024000000140002809DB00F01F02B8
:10089000012191404009800000F1E020C0F80011E2
:1008A00070470000F0B40E4B1B680C46C3F30223E4
:1008B000C3F10705042D00D90425191D072901D20C
:1008C000002300E0DB1E012606FA05F1491E214047
:1008D00099409E40761E16403143F0BC01F015BE93
:1008E0000CED00E0064900F0070208684FF6FF0330
:1008F000184040EA0220034A104308607047000095
:100900000CED00E00000FA052DE9F0470F46050068
:1009100061D0434E306800F00700B84209D2306819
:1009200020F0070038433060306800F00700B8421C
:1009300051D128683B4C810712D5400703D5606828
:1009400040F4E06060602878000703D5606840F4F8
:10095000605060606068A96820F0F0000843606043
:100960002878C00728D06868012810D0216802289C
:1009700010D0890700292EDA616821F003010143B4
:100980006160FFF7F1FE804641F288390DE0216891
:100990008903EFE78901EDE7FFF7E6FEA0EB080129
:1009A000494502D90320BDE8F0876068696800F016
:1009B0000C00B0EB810FEFD1306800F00700B842B7
:1009C0000BD9306820F0070038433060306800F001
:1009D0000700B84201D00120E5E72878400705D597
:1009E0006068E96820F4E0600843606028780007E8
:1009F00006D56068296920F4605040EAC100606053
:100A000000F048F86168084AC1F30311515CC8401E
:100A10000649086006480068FFF7C6FE0020C2E7E6
:100A200000200240001002408E4100081C000020FF
:100A3000140000200F2202600C4A536803F00303E5
:100A40004360536803F0F0038360536803F4E0638A
:100A5000C36052684FF4E06303EAD20202610448C3
:100A6000006800F0070008607047000000100240B6
:100A7000002002400448054900684968044AC1F35F
:100A80000221515CC84070471C0000200010024049
:100A90009E4100080E4A51680E4801F00C03042BD9
:100AA00011D0082B0FD10C48C1F38343C903C05C9C
:100AB0000AD55168084AC1F34041921E515C054A6B
:100AC0005043B0FBF1F070470449484370470000C1
:100AD0000010024000127A007E41000800093D002B
:100AE0002DE9F84F040070D02078C04DC00749D0E0
:100AF0006868C0F38100012807D06868C0F38100EE
:100B0000022809D16868C00306D52868800339D552
:100B100060680028E7D035E06068B0F5803F0BD012
:100B200010B1B0F5A02F11D0286820F480302860D3
:100B3000286820F4802002E0286840F48030286093
:100B4000606890B1FFF710FE06460AE0286840F49E
:100B500080202860F0E700BFFFF706FE801B6428B6
:100B600073D828688003F7D50CE0FFF7FDFD064633
:100B700005E000BFFFF7F8FD801B6428F0D8286867
:100B80008003F7D420789A4E80074FF001094FF088
:100B9000000839D5686810F00C0F07D06868C0F3FA
:100BA0008100022809D16868C00306D4286880073C
:100BB00014D52069012808D110E02069B0B1C6F829
:100BC0000090FFF7D1FD074605E00AE1FFF7CCFDF5
:100BD000C01B0228C4D828688007F7D52868616937
:100BE00020F0F80040EAC10028600DE0C6F800805F
:100BF000FFF7BAFD074604E0FFF7B6FDC01B022869
:100C000023D828688007F7D4207800072CD57948A6
:100C1000A169D9B1C0F80090FFF7A6FD074604E02E
:100C2000FFF7A2FDC01B02280FD8686A8007F7D51E
:100C300071484FF4FA510068B0FBF1F0009000BF2A
:100C40000098411E0091FAD20EE080E0C0F80080CA
:100C5000FFF78AFD074604E0FFF786FDC01B022868
:100C600075D8686A8007F7D42078400760D5E869AE
:100C70000027C00008D4E86940F08050E861E869C6
:100C8000012700F0805000905C480168C90513D42A
:100C90000168834641F480710160FFF765FD82467B
:100CA00006E000BFFFF760FDA0EB0A0064284ED805
:100CB000DBF80000C005F5D5E06801280AD008B1CE
:100CC000052813D0286A20F001002862286A20F045
:100CD000040002E0286A40F001002862E06841F266
:100CE000883B98B1FFF740FD82460BE0286A40F050
:100CF00004002862EEE700BFFFF736FDA0EB0A0113
:100D000059455AD8286A8007F6D50CE0FFF72CFD24
:100D1000824605E0FFF728FDA0EB0A0159454CD8B3
:100D2000286A8007F6D41FB1E86920F08050E86196
:100D3000E06988B36968C1F38101022944D00228BF
:100D4000C6F8608004D0FFF70FFD044638E034E0B9
:100D5000FFF70AFD074604E0FFF706FDC01B022867
:100D60002BD828688001F7D4206AB0F5803F05D1E0
:100D70006868A16820F4003008436860D4E908017D
:100D80000843696821F4741108436860C6F86090EC
:100D9000FFF7EAFC044606E025E000BFFFF7E4FCAD
:100DA000001B022809D828688001F7D51BE000BF86
:100DB000FFF7DAFC001B022802D90320BDE8F88FF8
:100DC00028688001F4D40EE00128F7D06868226A10
:100DD00000F48031914204D1616A00F470108842BD
:100DE00001D00120EAE70020E8E7000000100240FF
:100DF00000004242800442421C000020007000407B
:100E00007047704710B590F83C20012A22D001228B
:100E100080F83C20CA688C6822F4407222434C68F7
:100E200022F4806222430C6822F4006222430C699F
:100E300022F4805222434C6922F400522243C969B1
:100E4000002322F480420A4301684A6480F83C305F
:100E5000002010BD022010BD70B590F83C20012A82
:100E600026D0012480F83C40022280F83D2003680F
:100E70005A689D6822F070060A6832435A600D4B2A
:100E800002689A4208D0B2F1804F05D00A4B9A42CC
:100E900002D00A4B9A4204D1496825F080031943D5
:100EA000916080F83D40002180F83C10084670BDFC
:100EB000022070BD002C01400004004000080040EA
:100EC00010B5040003D094F83D0010B107E00120F4
:100ED00010BD002084F83C00204600F01FF80220DE
:100EE00084F83D00211D206801F088F8012084F875
:100EF000460084F83E0084F83F0084F8400084F8FF
:100F0000410084F8420084F8430084F8440084F8E7
:100F1000450084F83D00002010BD000008B50068C1
:100F20000649884208D10648816941F4006181611F
:100F3000806900F40060009008BD0000002C0140B2
:100F40000010024090F83D10012901D001207047A7
:100F5000022180F83D100168CA6842F00102CA60AF
:100F600000680B49884208D0B0F1804F05D009498C
:100F7000884202D00849884204D1816801F0070103
:100F8000062903D0016841F001010160002070478B
:100F9000002C0140000400400008004070B50446E9
:100FA00090F83C000025012817D0012684F83C6009
:100FB000022084F83D002068826822F0770222F443
:100FC0007F4282600868502838D00DDC20284FD03E
:100FD00005DC90B3102811D14AE0022070BD302802
:100FE00046D040280AD13BE060282FD070280DD091
:100FF000B0F5805F03D0B0F5005F12D0012584F812
:101000003D60002084F83C00284670BDCB68D1E9E3
:101010000121206801F03BF82068816841F07701E8
:1010200009E0CB68D1E90121206801F030F820689F
:10103000816841F480418160E1E719E0CA6849684C
:10104000206801F0D9F85021206806E0CA68496894
:10105000206801F0E2F86021206801F022F8CEE774
:10106000CA684968206801F0C7F840212068F4E7A1
:10107000226801461046F0E770472DE9F04104462A
:101080000068C66805694FF00007A90713D5B107C6
:1010900011D5F91E01610120207720688069800741
:1010A000204602D0FFF7E8FF04E000F0A5F8204654
:1010B00000F037F92777680716D5700714D521682F
:1010C0006FF004000861022020772068806910F426
:1010D000407F204602D0FFF7CFFF04E000F08CF8FD
:1010E000204600F01EF92777280715D5300713D5BD
:1010F00021686FF008000861042020772068C0692B
:101100008007204602D0FFF7B7FF04E000F074F834
:10111000204600F006F92777E80616D5F00614D524
:1011200021686FF010000861082020772068C069EE
:1011300010F4407F204602D0FFF79EFF04E000F04D
:101140005BF8204600F0EDF82777E80708D0F007B5
:1011500006D021686FF001000861204600F030F9E8
:10116000280608D5300606D521686FF08000086192
:101170002046FFF745FE680608D5700606D52168AB
:101180006FF040000861204600F024F9A8060AD557
:10119000B00608D521686FF0200008612046BDE840
:1011A000F041FFF72EBEBDE8F081000000B585B02C
:1011B0000021009101910291039100680B4988423E
:1011C00012D10B48816941F004018161806969464F
:1011D00000F0040004904FF40060009002200190A1
:1011E00003900448FFF7C6F905B000BD002C01408C
:1011F0000010024000080140704770B5044690F8A6
:101200003C0000260D4601280FD0012084F83C0048
:101210006AB1042A1DD0082A2FD00C2A3FD00126FB
:10122000002084F83C00304670BD022070BD20686C
:1012300000F040FF2068816941F008018161206869
:10124000816921F004018161206881692A69114363
:1012500011E0206800F056FF2068816941F40061C8
:1012600081612068816921F48061816120688169E0
:101270002A6941EA02218161D2E7206800F06EFF0D
:101280002068C16941F00801C1612068C16921F08D
:101290000401C1612068C1692A69114311E0206815
:1012A00000F088FF2068C16941F40061C1612068D5
:1012B000C16921F48061C1612068C1692A6941EA7C
:1012C0000221C161ACE710B5040003D094F83D00E1
:1012D00010B107E0012010BD002084F83C0020463A
:1012E00000F01EF8022084F83D00211D206800F067
:1012F00085FE012084F8460084F83E0084F83F0013
:1013000084F8400084F8410084F8420084F84300E7
:1013100084F8440084F8450084F83D00002010BDA6
:101320007047704710B50446022249B104290ED017
:10133000082913D094F84100012816D0012010BDCF
:1013400094F83E000128F9D184F83E200FE094F88B
:101350003F000128F2D184F83F2008E094F84000D3
:101360000128EBD184F8402001E084F841200122DB
:10137000206800F07FFE0F492068884203D1426C4C
:1013800042F4004242642068884208D0B0F1804FA5
:1013900005D00949884202D00849884204D18168B1
:1013A00001F00701062903D0016841F00101016045
:1013B000002010BD002C0140000400400008004047
:1013C00000680349884201D1FFF7D4B97047000093
:1013D000000800407047FEE708B50B4E6D466846B2
:1013E00001F00CF95FF0000405EB4401487820B1EE
:1013F00000231A46306802F0A1FA641C022CF3DBC9
:10140000062002F06BF8EAE70000002010B586B075
:10141000002202210A2002F0F9F91C4C01210022CD
:101420002060084602F0F2F9606002A91B20CDE9B5
:1014300000010023402216A1194802F065FC03A90F
:101440001920CDE900010023802216A1194802F0DD
:101450005BFC04A91A20CDE9000100234FF480723F
:1014600015A1184802F050FC1748009000230122F3
:10147000142116A002F0F2FDA060184A00211848BD
:1014800001F024FAE06006B010BD0000000000206A
:101490004B45595F5343414E5F5441534B0000004D
:1014A000D9130008444953504C41595F5441534BA0
:1014B00000000000F10400084D454E555F544153B3
:1014C0004B000000791600085932000872656672F8
:1014D0006573685F74696D657200000058410008AB
:1014E000491F00082DE9F04385B000242C480094E2
:1014F000019402940394816941F020018161816922
:1015000001F020010491816941F004018161816948
:1015100001F004010491816941F008018161806951
:10152000DFF8808000F00800049000224FF4805122
:101530004046FFF714F901224FF460414046FFF79F
:101540000EF90122DFF86090170239464846FFF78E
:1015500006F9032001258DE8310069464846FFF76A
:1015600009F82020CDE90004694648460294FFF7B7
:1015700001F84FF470400226CDE90005CDE902469E
:1015800069464046FEF7F6FF00970396CDE9015401
:1015900069464846FEF7EEFF05B0BDE8F08300005F
:1015A00000100240000C01400008014010B596B048
:1015B00000240F9410941194129413941C2108A8E1
:1015C0001494FEF79AFE20216846FEF796FE2848FE
:1015D000264901604821C0E901144FF47A71C0E93D
:1015E000031444618461FFF76BFC08B1FEF7AEFFA2
:1015F0004FF480500F900FA91D48FFF7CFFC08B1A2
:10160000FEF7A4FF1A48FFF75EFE08B1FEF79EFF43
:10161000139413A916481494FFF71EFC08B1FEF7A3
:1016200095FF6020CDE908040A940C940D940C22D7
:1016300008A90F480E94FFF7E0FD08B1FEF786FFFA
:1016400000944FF40050CDE90440029401940394B7
:10165000694607480794FFF7D5FB08B1FEF776FF08
:101660000348FFF7A3FD16B010BD0000002C014099
:10167000D0000020FEE7000008B51A4D1A4C4FF0CC
:10168000FF3632466946286802F068FA0128F8D128
:101690009DF8010001280BD00228F2D19DF800002E
:1016A0000028EED12068016981B101F0D7F813E07C
:1016B0009DF8000038B10128E3D120684068002877
:1016C000DFD080470AE020688068F8E707490968AA
:1016D000884203D001F0ACF801F0B0FD01F0AEFD9E
:1016E000CFE7000000000020C8000020C400002058
:1016F000FEE7000010B50021074C0A46002004EB6D
:10170000C1131A54401CC0B28028FAD3491CC9B274
:101710000829F3D310BD0000641C0020F0B50B4471
:1017200024E0044685181DE07F2C19D8002917DB1A
:101730003F2915DCCE1701EB56764FEAE60C0D4F2C
:1017400026F0070607EBCC172744A1EB060E97F807
:1017500000C0012606FA0EF62CEA060C87F800C037
:10176000641C24B2A542DFDC491C09B28B42D8DCE0
:10177000F0BD0000641C00202DE9FF4F804687B0BB
:10178000C2F10100144603900D46081901B200266B
:101790004746404600F004F9281B01B2384600F0E5
:1017A000FFF808EB040000B2294600F0F9F8A8EBB6
:1017B000040000B2294600F0F3F80A98002875D01A
:1017C000674206E0E81901B2404600F0E9F87F1CE4
:1017D0003FB2A742F6DB69E0761C039836B20028D8
:1017E00002DA00EB460004E0641E24B2311B00EB79
:1017F0004100401C00B20390281901B208EB06001A
:1018000000B281460291069000F0CAF8A81901B210
:1018100008EB040000B28346059100F0C1F8281BD4
:1018200001B2A8EB060000B20F460190009000F054
:10183000B7F8A81B01B2A8EB040000B282460491DD
:1018400000F0AEF83946484600F0AAF85846049928
:1018500000F0A6F80299009800F0A2F85046059909
:1018600000F09EF80A9808B3604207B20BE0E8194E
:1018700001B28946069800F093F84946019800F0B5
:101880008FF87F1C3FB2A742F1DB704207B20BE03A
:10189000E81901B28946504600F082F84946584698
:1018A00000F07EF87F1C3FB2B742F1DBA64293DB2B
:1018B0000BB0BDE8F08F2DE9F04F1E464FF0000948
:1018C00004460D461746C846B1420ED1BC4208DD5B
:1018D0002746144605E02946204600F061F8641CBE
:1018E00024B2BC42F7DDBDE8F08FBC420DD1B54259
:1018F00008DD1D460E4605E02946204600F050F85A
:101900006D1C2DB2B542F7DDEDE703DD2746144629
:101910001D460E46B54205DD684205B2704206B26C
:101920004FF00109701B391B884207DD20462C4609
:1019300005463846374606464FF00108701B420000
:10194000391B0FFA82FB421A52000FFA82FAC1EBDE
:10195000400019E0604201B203E0684201B203E0D6
:101960002146284601E02946204600F019F8BC42ED
:10197000B9DA641C24B2002E02DA06EB0B0003E095
:101980006D1C2DB206EB0A0006B2B9F1000F03D0B0
:10199000B8F1000FE1D0DDE7B8F1000FE3D0DFE7E9
:1019A00010B57F2813D8002911DB3F290FDCCA1797
:1019B00001EB5272D410064B22F0070203EBC41362
:1019C00018448A1A0378012191400B43037010BD1B
:1019D000641C00202DE9F0430446CD180798884682
:1019E000A618274668BB681E0FFA80F909E0414631
:1019F0003846FFF7D5FF49463846FFF7D1FF7F1C31
:101A00003FB2BE42F3DC761E474636B209E03946A5
:101A10002046FFF7C5FF30463946FFF7C1FF7F1C60
:101A20003FB2BD42F3DCBDE8F083444605E0214609
:101A30003846FFF7B5FF641C24B2A542F7DC7F1CD3
:101A40003FB2BE42F1DCEEE710B500204FF47A72EF
:101A50000021491C9142FCD3401C9042F8D3002045
:101A600000F02AFA012000F02FFA012000F03CFAE1
:101A7000012000F031FABDE81040012000F014BA56
:101A800010B5FFF7E1FFAE2000F036FAD52000F0E8
:101A900033FA802000F030FAA82000F02DFA3F2021
:101AA00000F02AFAD32000F027FA002000F024FAF0
:101AB000402000F021FAA12000F01EFAC82000F01A
:101AC0001BFADA2000F018FA122000F015FA812033
:101AD00000F012FACF2000F00FFAD92000F00CFA33
:101AE000F12000F009FADB2000F006FA302000F0C7
:101AF00003FAA42000F000FAA62000F0FDF98D20E2
:101B000000F0FAF9142000F0F7F9AF2000F0F4F932
:101B1000FFF7F0FDBDE8104000F0B2B90246012029
:101B200000E05043491EFCD270470000F0B50B4462
:101B300023E0044685181CE07F2C18D8002916DB0A
:101B40003F2914DCCE1701EB567C4FEAEC070C4E14
:101B50002CF0070C06EBC7162644A1EB0C0E3778C9
:101B60004FF0010C0CFA0EFC87EA0C073770641C6E
:101B700024B2A542E0DC491C09B28B42D9DCF0BD9D
:101B8000641C002070B500240646802525FA04F068
:101B9000304000D0012000F097F9012000F08CF9CE
:101BA000002000F089F9641CE4B2082CEED370BD6B
:101BB00010B50C4640F0B00000F09EF9102040EA4D
:101BC000141000F099F904F00F00BDE8104000F087
:101BD00093B9000008B5082B0DD0062B0AD10A4B8B
:101BE00002EB420203EB4202C03A009208230622B3
:101BF00000F00EF808BD054B03EB0212A2F50072CF
:101C0000102300920822F3E796470008A641000837
:101C10002DE9F04F1F4616460D4682460024FFF779
:101C20007DFD7F1EF81707EB50700121DFF898B09B
:101C300001EBE00743E000203DE000BF0AEB0003BA
:101C40007F2B36D8E91705EB5171CA1021F0070137
:101C5000691A002D03DA521E083112B209B202EBE2
:101C60000409B9F1070F0ED8099A04FB06F80244DB
:101C70000BEBC91E18F802201EF803C08A404CEA7C
:101C8000020C0EF803C009F10102072A11D80BEB70
:101C9000C91202EB0308099A04FB06FC024498F8F7
:101CA00080301CF80220C1F10801CA40134388F8B3
:101CB0008030401CC0B2B042C0D3641CE4B2A74222
:101CC000B9DCBDE8F08F0000641C00202DE9F0476E
:101CD00000241D4690468A4681460A27089E14E045
:101CE000291B0A20491EFFF719FFB8FBF0F0B0FBD3
:101CF000F7F107FB110204FB069000B23346514690
:101D00003032FFF767FF641CE4B2AC42E8D3BDE8B1
:101D1000F08700002DE9FF4F002483B09B469046DA
:101D20002546A246DFF850919EE0100610D4039895
:101D30008DF80420641C2844A4B28DF805A000B2DC
:101D40005B460499FFF746FF05EB0B0085B28BE07D
:101D50000620B0EB521F0ED1641CA0B28DF80420F7
:101D600018F80010002974D08DF80510401C84B2BA
:101D70008DF806A03CE00E20B0EB121F16D1641CBB
:101D8000A0B28DF8042018F80010002971D0401C72
:101D900080B28DF8051018F80010002969D08DF870
:101DA0000610401C84B28DF807A021E01E20B0EB85
:101DB000D20F1FD1641CA0B28DF8042018F80010B7
:101DC000002956D0401C80B28DF8051018F800107C
:101DD00000294ED0401C80B28DF8061018F8001073
:101DE000002946D0401C8DF8071084B28DF808A059
:101DF000002609E0641CA4B236E0384601A9FEF7CB
:101E0000A3FA68B1761CB6B206EB860000EB461169
:101E100001EB0900074619A1FEF796FA0028ECD15C
:101E2000BBF1080F03D0BBF1060F1DD112E006EB8A
:101E3000860000EB461101EB0900401D009003985D
:101E40001023284400B21A460499FFF7E1FE10352A
:101E500009E00EE003980623284400B23F220499CB
:101E6000FFF7B8FEAD1DADB218F80420002A7FF4CC
:101E70005CAF07B0BDE8F08FD0490008000000005B
:101E800070B5084D002400212046FFF791FE05EBB8
:101E9000C410802100F040F8641CE4B2082CF2D396
:101EA00070BD0000641C002002464FF480710148A0
:101EB000FEF755BC0008014002464FF4805101482E
:101EC000FEF74DBC000C014002464FF400510148A2
:101ED000FEF745BC000C014002464FF400410148AA
:101EE000FEF73DBC000C014002464FF48041014822
:101EF000FEF735BC000C014010B504460020FFF78A
:101F0000D3FF0020FFF7E8FF2046FFF73BFEBDE8C8
:101F100010400120FFF7C8BF70B506460D460020EF
:101F2000FFF7C2FF0120FFF7D7FF002404E0305D78
:101F3000FFF728FE641CE4B2AC42F8D3BDE8704061
:101F40000120FFF7B1BF000008B500F00DFB01F064
:101F500041FF0246002003460090054801218068A9
:101F600002F0C6F8BDE80840002001F0DDBA00002C
:101F70000000002010B54FF0E020006901F01CFFC8
:101F8000012803D0BDE8104001F02ABC10BD30B5D7
:101F90008FB028216846FEF7B0F914210AA8FEF791
:101FA000ACF901210804CDE90010002402940225B7
:101FB0000491CDE907504FF4E01009906846FEF710
:101FC0008FFD08B172B6FEE70F20CDE90A054FF488
:101FD0008060CDE90C4002210AA80E94FEF794FC23
:101FE000002801D072B6FEE70FB030BD7047000088
:101FF0000148FFF742B8000018010020F0B5026860
:10200000194B1A4C1A4D4FF08047984205D0B842F0
:1020100003D0A04201D0A84203D122F070064A6842
:102020003243984205D0B84203D0A04201D0A84222
:1020300003D122F44074CA6822434C6922F0800222
:10204000224302608A68C2620A688262984201D1B1
:1020500009690163012141610169C90703D001696F
:1020600021F001010161F0BD002C0140000400409D
:102070000008004010B501F01F030121046A9940D7
:102080008C430462016A9A401143016210BD10B58D
:10209000846842EA032224F47F440A432243826094
:1020A00010BD826822F070020A4342F0070181608D
:1020B0007047000030B5036A026A22F00102026232
:1020C0004268846924F073050C682C4323F00205F0
:1020D0008B682B430A4DA8420BD123F00805CB682F
:1020E00022F440722B434D6923F0040315438A699F
:1020F0002A434260846149684163036230BD000045
:10210000002C014030B5026A036A23F01003036219
:10211000436884690D6824F4E64444EA05248D6824
:1021200022F0200242EA05120B4DA8420ED1CD68E2
:1021300022F0800242EA05124D6923F4406343EA2B
:1021400085038D6922F0400243EA85034360846180
:1021500049688163026230BD002C014030B5036ADA
:10216000026A22F4807202624268C46923F4007336
:1021700024F073050C682C438D6843EA05230C4D4D
:10218000A8420ED1CD6823F4006343EA05234D69CC
:1021900022F4405242EA05128D6923F4806342EA38
:1021A00005124260C4614968C163036230BD00002A
:1021B000002C014030B5046A026A22F480520262A7
:1021C0004268C3690D6823F4E64343EA05238D683A
:1021D00024F4005444EA0534064DA84204D14D6964
:1021E00022F4804242EA85124260C3614968016478
:1021F000046230BD002C014010B5036A046A24F06B
:1022000001040462846924F0F00444EA021423F017
:102210000A020A438461026210BD10B5036A046AAF
:1022200024F010040462846923F0A00324F47044B1
:1022300044EA023243EA01118261016210BD0000EA
:1022400010B5FFF757FA06232021BDE8104002A27F
:102250000020FFF75FBD00004261636B202020205B
:102260000000000010B5FFF745FA06232021BDE865
:10227000104002A24020FFF74DBD00004C494748E6
:102280005400000038B5FFF735FA0021062320A2DC
:102290000846FFF73FFD0A237F2219460020FFF77B
:1022A0000AFB002000900C236C2218210A20FFF763
:1022B00091FB00F071FA0446682060436421B0FB92
:1022C000F1F010F0FF0206D00120009008231A213F
:1022D0000C20FFF77FFB06200090032322462A21D3
:1022E0002D20FFF7F3FC06230BA22A213F20FFF746
:1022F00011FD062309A238210020FFF70BFD01B0D4
:102300000623BDE83040382106A25A20FFF702BD5F
:102310004C49474854000000250000005B41444AF6
:102320005D0000005B4241434B5D000038B5FFF7A4
:10233000E1F95C4C0F212078401CC0B2B0FBF1F1F8
:10234000207001F0010161704108A1701421B0FBFF
:10235000F1F201FB12020A210A2AB0FBF1F201FBA1
:10236000120001D3C0F113000321B0FBF1F50821E5
:10237000002307220846ED1CFFF7FEF90821002381
:1023800005220846FFF7F8F960784FF001030028AE
:102390007ED0082102220846FFF7EEF9002304222E
:1023A00008210846FFF7E8F906233FA2012114207F
:1023B000FFF7B0FC0A23462219461420FFF77BFAE8
:1023C00006233BA201216020FFF7A4FC00250C237B
:1023D000202229465E200095FFF7FCFA12237F2277
:1023E00019460020FFF767FA012302221221A07884
:1023F000FFF7C2F9A078002301221221C01EFFF7C7
:10240000BBF9A078002301221221C01CFFF7B4F908
:10241000062329A219212320FFF77CFC1223642222
:1024200014210E200095FFF7D5FA01231A46162134
:102430001020FFF7A1F901231A4616217020FFF79B
:102440009BF901231A4624211020FFF795F9012357
:102450001A4624217020FFF78FF9062319A238218C
:102460000220FFF757FC062318A238214620FFF769
:1024700051FC0A23212237214620FFF757FB3D2339
:102480007F2219467B20FFF716FA39237F2200E0CE
:1024900006E001B03D21BDE830401046FFF70BBA21
:1024A0002A467DE7BC00002053595354454D000097
:1024B00076312E30000000004652454552544F53AD
:1024C000000000005B4D454E555D0000454E5445F3
:1024D0005200000010B5FFF70DF90021062306A2F7
:1024E0000846FFF717FC06233821BDE8104004A278
:1024F0000020FFF70FBC000053455454494E4700DD
:102500005B454E5445525D00FEE70907090E002861
:1025100004DB00F1E02080F80014704700F00F00A9
:1025200000F1E02080F8141D704770B515460E4686
:1025300004461A462946304600F04EF8002801D0DD
:10254000A061446170BD70B515460E4604461A463A
:102550002946304600F040F8002803D0E0600461CE
:102560006169416170BD000010B5114A0021114838
:1025700000F032F80446104B104A1149FFF7D5FF1E
:102580000D4B0B4A0F49FFF7DEFF0B4B0B4A0C4973
:10259000FFF7CBFF084B064A0B49FFF7D4FF064B6A
:1025A0000A4A0B49FFF7C1FF0A484460846010BD26
:1025B0001D2800082D23000849280008312800089C
:1025C00041220008D524000865220008752700086C
:1025D00085220008C000002070B514460D4606464E
:1025E00000F00AF9002807D00021C0E9024101618A
:1025F00041618161C0E9006570BD00002DE9F041D5
:102600000024047001278770594D4470C470064639
:10261000A9882868FEF79EF8A871298AE868FEF75D
:1026200099F8A8740020291F4FF0020C8B1C0A5C3B
:10263000052A7DD2DFE802F003102A725D0000EB6C
:10264000400205EB820E9EF80620CABB0F548EF89E
:1026500007408EF8084088E000EB400205EB82025C
:1026600092F806E0BEF1000F02D0D4710C545FE086
:1026700092F807E00EF1010E0EF0FF0E82F807E06F
:10268000BEF1030F54D301F800C06CE000EB400230
:1026900005EB820292F808E00EF1010E0EF0FF0E3B
:1026A00082F808E0BEF1640F04D313F800E0BEF135
:1026B000000F06D092F806E0BEF1010F09D036E017
:1026C0002BE006EB400E8EF801C01F544FF0040EB5
:1026D0000CE092F807E00EF1010E0EF0FF0E82F80A
:1026E00007E0BEF1030F23D34FF0030E01F800E023
:1026F0001DE000EB400205EB820292F806E0BEF11D
:10270000010F14D192F807E00EF1010E0EF0FF0E4A
:1027100082F807E0BEF1030F24D209E000EB40028B
:1027200005EB820292F806E0BEF1010F06D0D471EB
:10273000401C0228FFF67BAFBDE8F08192F807E06D
:102740000EF1010E0EF0FF0E82F807E0BEF1030F4E
:10275000EED313F800E0BEF1000F03D106EB400EFC
:102760008EF801700C54D47114721C54E0E7000010
:10277000A4000020064801781431C9B20170642910
:1027800001D900210170C8B2024909680864704784
:10279000CC000020D00000200148007870470000E5
:1027A000CC00002010B50C210648FEF7BBFD054803
:1027B0000168CA6822F00102CA6000680021016451
:1027C00010BD0000D0000020FDF7DCFFFFF7DFFBAD
:1027D000FEF788FEFEF7EAFEFFF752F9FFF7E2FF89
:1027E00000F046F8FEF712FE00F054F84FF47A7449
:1027F0002046FDF7ADFEFBE706490A78142A01D30F
:1028000000207047C2EBC200034B521C03EB800058
:102810000A707047C0000020341A00200348816805
:10282000896901B94168816070470000C0000020DB
:1028300004488268516911B943689A4200D18160A5
:1028400070470000C000002003498868C068002865
:1028500000D0886070470000C000002003498868ED
:102860000069002800D0886070470000C000002088
:10287000EFF3058010B16FF0050070470448016860
:1028800011B14FF0FF307047012101600020704707
:102890007000002010B5EFF3058010B16FF0050057
:1028A00010BD08480168012902D04FF0FF3010BD6B
:1028B000054A002182F8141D0221016000F0BEFECD
:1028C000002010BD700000200BE000E02DE9FF416A
:1028D0004FEA01034FF00005EFF30581039549BB73
:1028E00040B38027182100244AB3166806B1344645
:1028F00096691EB13146761E382E02D21679F60739
:1029000003D0002004B0BDE8F081566906B1B708D5
:10291000D2F808C0BCF1000F0DD0D5685C2D18D3DB
:1029200012693AB136B18DE806103A46214601F0F7
:1029300018FA03900DE0D6685EB912694AB903AA85
:10294000CDE90012BAB2214601F0DEF9012800D02B
:1029500003950398D6E700002DE9F041134C0F468C
:102960000546E6682068001D00F084FC681C07D15D
:1029700037B12168BDE8F0410D48091D00F0CABC1F
:1029800020683544B5424560216805D2A06BBDE89A
:10299000F041091D00F0A6BC606B091D00F0A2FC0F
:1029A000A06A854200D2A562BDE8F0812000002027
:1029B000500600202DE9F041054600F0B7FC2D4CF3
:1029C000A068401CA06020682B4F10B1606930B334
:1029D0002BE02560A068012827D1002606EB8600A1
:1029E00007EB800000F070FC761C382EF6D32348ED
:1029F00000F06AFC2148143000F066FC1F482830C3
:102A000000F062FC1D483C3000F05EFC1B4850307A
:102A100000F05AFC194860631430A06305E0206898
:102A2000E96AC06A884200D82560606A401C60621A
:102A30006864E86A2169884200D9206100EB80005F
:102A400007EB8000291D00F065FC00F08FFC606939
:102A500000280CD02068E96AC06A884207D2084979
:102A60004FF080500860BFF34F8FBFF36F8FBDE80A
:102A7000F081000020000020A001002000060020BE
:102A800004ED00E038B500F051FC104C2068C8B9E6
:102A90000F4800F019FC0E48143000F015FC0C48EB
:102AA000E060143020610A4B0020F03B009003F1FD
:102AB000500210210A2000F0CAFE206010B105A1CA
:102AC00000F0D6FCBDE8384000F050BC5C000020AF
:102AD00054070020546D72510000000030B4026CA5
:102AE0000B46002A0BD0C1681144C1608468A14222
:102AF00001D30168C16030BC1846FDF7B1BB30BCE2
:102B000070472DE9F041856B174604460026026C9C
:102B100082B1C7B1E068FDF7A3FBE168206C091A38
:102B2000E1602268914202D2A168081AE060022F97
:102B300016D017E02068A8B9A06801F0B5F90646DC
:102B40000020A0600EE06068FDF78AFB216C6068E1
:102B500008446060A168884204D32068606001E096
:102B600005B16D1E6D1CA5633046BDE8F08110B542
:102B7000044690F8590058B101280CD002280FD013
:102B8000502080F31188BFF34F8FBFF36F8FFEE7A4
:102B9000206B00F0FFFB2046BDE8104000F0FABBC0
:102BA00010BD000010484FF44061420706D0C01D20
:102BB0000D4920F00700411AC1F540610B4A00237E
:102BC0000144C2E900030839183A21F007011160F5
:102BD0004B600B600B1AC0E9001393604FF000408C
:102BE0005360506170470000340E00208C000020BC
:102BF000144E154CA6F29C474FF08058DFF84C90CD
:102C000012E000BF00F092FBF068C568281D00F0DC
:102C100031FBA068401EA0606068401E606000F04C
:102C2000A5FB2846FFF7A3FF60680028EAD13868B3
:102C30000128F9D9C9F80080BFF34F8FBFF36F8F18
:102C4000F2E700003C0600202000002004ED00E038
:102C500070B51D46049C51B1C4F80020C4E90F01B1
:102C60000121204600F026FE84F84C5070BD2460FF
:102C7000F4E700002DE9F05F8846DDE90B94154686
:102C8000834691009A460A9EA522206BFDF72DFBF4
:102C90006FF00301206B01EB8501084420F007076A
:102CA000780707D0502080F31188BFF34F8FBFF310
:102CB0006F8FFEE70025B8F1000F0FD05FF0000026
:102CC000221818F8001082F8341018F8001011B10A
:102CD000401C1028F4D384F8435001E084F83450A9
:102CE000382E00D33726E662C4E91365201D00F0B4
:102CF000F6FA04F1180000F0F2FA2461C6F1380087
:102D00006462A061656584F8585052465946384659
:102D100000F082FA2060B9F1000F01D0C9F800403C
:102D2000BDE8F09F2DE9F0471E46DDE908941746FF
:102D30000D00804615D0002C11D0FFF7A3FE04F142
:102D40001801C4F8008081E86002201D00F0C7FA75
:102D5000002F04D014F8280F40F004002070BDE8C4
:102D6000F087502080F31188BFF34F8FBFF36F8F30
:102D7000FEE7000030B5114900E011460A688242C2
:102D8000FBD34B685C18844203D140681844486008
:102D9000084643681C18944209D1084C183C246822
:102DA000A24209D052681A4442600A68126802605E
:102DB000814200D0086030BD0460F9E78C0000203B
:102DC00070B5002441600B4D0061914206D8D11AC4
:102DD0008269914206D2011D286907E09A4203D216
:102DE000994201D3012403E0011DE86800F07AFA5A
:102DF000204670BD5C00002010B5044600F096FA35
:102E0000A06B28B15FF0000400F0B0FA204610BDBE
:102E10000124F9E730B589B03C4D6EE004980028F4
:102E200006DADDE90601059A90470498002864DB7C
:102E3000069C606910B1201D00F01CFA03A800F088
:102E4000D7F8024604980A2857D2DFE800F00505B3
:102E5000052D334A05052D3394F8280040F0010074
:102E600084F828000599A069059B01442046FFF7D6
:102E7000A7FF68B3216A2046884794F828004007D6
:102E80003BD5002000900598A169002342181946FF
:102E9000204601F02DF9D8B9502080F31188BFF3F6
:102EA0004F8FBFF36F8FFEE714F8280F20F001005B
:102EB000207022E094F8280040F0010084F82800F7
:102EC0000598A06128B1811813462046FFF778FFC6
:102ED00013E0502080F31188BFF34F8FBFF36F8F43
:102EE000FEE794F82800810703D4204600F052FA48
:102EF00003E020F0010084F82800002204A92868DB
:102F000000F02CFE002889D109B030BD5C00002003
:102F10002DE9FC410F46054600F0D4FB01A800F066
:102F200067F80446019818B101F036F8BDE8FC8155
:102F3000254EAFB130690068D0B30027291B3A464F
:102F4000306800F0A9FA01F027F80028EED11F49F7
:102F50004FF080500860BFF34F8FBFF36F8FE5E7EE
:102F6000A542EBD801F018F8F0682746C068C4689D
:102F7000201D00F07FF994F82800410719D5A069B9
:102F80002B4641193A462046FFF71AFFA8B1002008
:102F90000346014600902A46204601F0A9F860B990
:102FA000502080F31188BFF34F8FBFF36F8FFEE780
:102FB00007E020F0010084F82800216A20468847B5
:102FC000B4E70127BAE700005C00002004ED00E050
:102FD0000648416B096829B1416BC968C9684968ED
:102FE000816270474FF0FF31FAE7000020000020B7
:102FF00070B5054600F0EEFE064E0446B068844209
:1030000003D200F009F8012000E0002028602046EB
:10301000B46070BD5C000020F8B5194D20E0C068B8
:10302000C4680668201D00F025F9216A20468847FB
:1030300094F82800400713D5A0693044B04206D95F
:1030400024616060211DE86800F04CF908E0002070
:103050000346014600903246204601F049F838B157
:10306000E86801680029DAD12969C5E90310F8BDCB
:10307000502080F31188BFF34F8FBFF36F8FFEE7AF
:103080005C00002008484068401C4FF0500080F36E
:10309000118804D0BFF34F8FBFF36F8FFEE7BFF3EC
:1030A0004F8FBFF36F8FFEE794000020074CE0685E
:1030B000016841B1C0680021D0F80000FFF728FF87
:1030C000FFF7A8FEF3E701210020F7E75C000020EE
:1030D0002DE9F041044600F029F994F9455004F136
:1030E000240609E0606A48B1304600F01DFF08B1CF
:1030F00000F06AFA6D1E6DB2002DF3DC4FF0FF3662
:1031000084F8456000F032F900F010F994F9445069
:1031100004F1100709E0206948B1384600F004FFC7
:1031200008B100F051FA6D1E6DB2002DF3DC84F889
:103130004460BDE8F04100F019B900002DE9F0410C
:103140000546002700F0BEFA324E306808B9FFF796
:1031500029FD706905424ED1C5B3083568070ED008
:1031600005F00700C0F108000544680707D05020AB
:1031700080F31188BFF34F8FBFF36F8FFEE72DB33E
:103180007068854237D82348183001460C6801E042
:1031900020460C466168A94202D221680029F7D175
:1031A00031688C4227D00768216801606068083761
:1031B000411B10290FD96019420708D0502080F315
:1031C0001188BFF34F8FBFF36F8FFEE713E04160AD
:1031D0006560FFF7CFFD61687068401A7060B26883
:1031E000904200D2B060706901430020C4E9000140
:1031F000F068401CF06000F0CFFE780707D0502048
:1032000080F31188BFF34F8FBFF36F8FFEE738460F
:10321000BDE8F0817400002010B5031F4FF08074EA
:103220001C601B1F21F001011960191F024B0B606C
:10323000143940380A6010BD8530000808B50120F7
:103240008DF800000348022300226946406800F020
:1032500075FB08BD000000200448054900680968A6
:10326000884201D1FFF7EABF70470000C800002084
:10327000C4000020D0E9013201699A60D0E901233D
:103280005A604A68824201D182684A600022026123
:103290000868401E0860086870470000034B036020
:1032A00003F15C0008608020106070477C070020FC
:1032B000044B036003F15C0008604FF48070106001
:1032C00070470000D809002000F108014FF0FF32DC
:1032D000C0E90112C1600161002101607047002155
:1032E0000161704730B50B685A1C02D000F108022A
:1032F00002E0026904E02246546825689D42FAD93A
:1033000053684B6099608A60516008610168491C8C
:10331000016030BD42684A6093688B609368596071
:10332000916008610168491C01607047502080F37A
:103330001188BFF34F8FBFF36F8F0A494868401C55
:10334000486001280CD10848006810F0FF0F07D032
:10335000502080F31188BFF34F8FBFF36F8FFEE7CC
:10336000704700009400002004ED00E00849486820
:1033700028B1401E486001D180F311887047502069
:1033800080F31188BFF34F8FBFF36F8FFEE700000C
:103390009400002070B500282AD0164DA0F1080432
:1033A00060686969084207D1502080F31188BFF333
:1033B0004F8FBFF36F8FFEE722683AB1502080F342
:1033C0001188BFF34F8FBFF36F8FFEE788436060B4
:1033D00000F078F960686968084468602046FFF783
:1033E000C9FC2869401C2861BDE8704000F0D4BDCC
:1033F00070BD0000740000204FF0E020002101614A
:10340000816105494FF47A720968B1FBF2F1491EF6
:1034100041610721016170471C00002010B5FCF7D5
:10342000FBFE114910280ED300F1E02090F8F003C4
:103430000A78904207D2502080F31188BFF34F8F53
:10344000BFF36F8FFEE709480068896800F4E06009
:10345000884207D9502080F31188BFF34F8FBFF304
:103460006F8FFEE710BD0000940000200CED00E01F
:1034700010B5084B002200BF53F832401CB1521C5B
:10348000082AF9D310BD43F8321003EBC20148609B
:1034900010BD00006001002070B515460E460446C0
:1034A000FFF744FF94F944100020491C01D184F82F
:1034B000440094F94510491C01D184F84500FFF7F8
:1034C00055FFA06B28B92A46314604F1240000F0CC
:1034D00099F82046BDE87040FFF7FABD10B502002C
:1034E00014D00F48006B38B1502080F31188BFF31F
:1034F0004F8FBFF36F8FFEE700F0E4F80021104616
:10350000FFF72AFA00F048FD002807D105494FF0DF
:1035100080500860BFF34F8FBFF36F8F10BD000066
:103520002000002004ED00E070B50546FFF7FEFE28
:103530001E4C05B92568281DFFF79CFEA86A18B126
:1035400005F11800FFF796FE606A401C6062206873
:10355000854207D1291D1648FFF7DCFE6068401C34
:10356000606007E0A068401EA0602846FFF7FFFAF1
:10357000FFF72EFDFFF7FAFE6069002814D02068DF
:10358000854211D1206B38B1502080F31188BFF3F0
:103590004F8FBFF36F8FFEE706494FF080500860F2
:1035A000BFF34F8FBFF36F8F70BD0000200000206E
:1035B0003C06002004ED00E002490A6A0260C96886
:1035C000416070472000002001490120C861704718
:1035D0002000002010B50C4650B109490968183187
:1035E000FFF780FE2046BDE810400121FFF7B4B987
:1035F000502080F31188BFF34F8FBFF36F8FFEE72A
:103600002000002070B514460D4668B10A490968CB
:103610001831FFF77FFE0CB14FF0FF3521462846E9
:10362000BDE87040FFF798B9502080F31188BFF3D0
:103630004F8FBFF36F8FFEE72000002030B587B0BB
:103640000024039405AA04A903A80494FFF726FE06
:10365000DDE903010094CDE90110002315A117480D
:10366000059A00F07EFB164D0028E8621FD000F09E
:103670000FFD012809D0401C19D1502080F311887A
:10368000BFF34F8FBFF36F8FFEE7502080F3118899
:10369000BFF34F8FBFF36F8F4FF0FF30A862012051
:1036A0006861EC6007B0BDE8304000F045B807B095
:1036B00030BD000049444C4500000000F12B0008DB
:1036C000200000200248016B491C01637047000084
:1036D00020000020164810B5016B11B10121C16115
:1036E00010BD0021C1610169124A01E0B9B1491E52
:1036F00001EB810352F82330002BF7D001EB81035B
:1037000002EB830202F1080453685B685360A34232
:1037100001D15B685360DA680260016110BD50201E
:1037200080F31188BFF34F8FBFF36F8FFEE7000068
:1037300020000020A00100201CB526490878019037
:10374000FF20087008788DF800009DF800009DF8B3
:10375000002000F0F000904207D0502080F3118844
:10376000BFF34F8FBFF36F8FFEE79DF800001A4C39
:1037700000F0500020700720A06005E09DF80020B8
:1037800052008DF80020401E9DF800201206F5D44E
:10379000A060032807D0502080F31188BFF34F8F1B
:1037A000BFF36F8FFEE74FF44070A0600198087080
:1037B0000A48016841F470010160016841F07041FC
:1037C0000160FFF719FE00206060FCF7EFFC0020AD
:1037D0001CBD000000E400E09400002020ED00E0AB
:1037E00010B5502080F31188BFF34F8FBFF36F8F58
:1037F00000F0F6FA18B104494FF08050086000203C
:1038000080F3118810BD000004ED00E0F8B5174604
:103810000E46050013D005FB06F05030FFF78EFC76
:1038200004000AD0002084F8460004F150023B4610
:10383000314628460094FFF70BFA2046F8BD502089
:1038400080F31188BFF34F8FBFF36F8FFEE738B55A
:10385000049D18B153B1CAB181B120E0502080F36A
:103860001188BFF34F8FBFF36F8FFEE7502080F3B7
:103870001188BFF34F8FBFF36F8FFEE7502080F3A7
:103880001188BFF34F8FBFF36F8FFEE739B1502020
:1038900080F31188BFF34F8FBFF36F8FFEE7502483
:1038A0001C46012384F846302B460094FFF7D0F9DC
:1038B000204638BD70B50D46040025D0FFF736FD13
:1038C000D4E90F20216802FB0011A1600021A1634F
:1038D000216861600A46D4E90F01401E00FB012106
:1038E000E16021464FF0FF3001F8440F487004F1C9
:1038F00010008DB1FFF7E8FC04F12400FFF7E4FCB1
:10390000FFF734FD012070BD502080F31188BFF314
:103910004F8FBFF36F8FFEE721690029F0D000F0D1
:1039200003FB0028ECD004494FF080500860BFF33F
:103930004F8FBFF36F8FE3E704ED00E02DE9FF4702
:1039400082B01D468A464FF00008040003D0BAF149
:10395000000F08D011E0502080F31188BFF34F8F83
:10396000BFF36F8FFEE7206C38B1502080F31188D1
:10397000BFF34F8FBFF36F8FFEE7022D0AD1E06BCD
:10398000012807D0502080F31188BFF34F8FBFF379
:103990006F8FFEE700F010FA3F4F4FF000094FF035
:1039A000805648B9049838B1502080F31188BFF38D
:1039B0004F8FBFF36F8FFEE7FFF7B8FCA06BE16B93
:1039C000884207D3022D05D00498D0B1B8F1000F7A
:1039D0001AD01EE02A4651462046FFF792F8616A47
:1039E00019B104F1240000F09FFA20B13E60BFF34A
:1039F0004F8FBFF36F8FFFF7B9FC012006B0BDE812
:103A0000F087FFF7B3FC22E06846FFF7D5FD4FF0E3
:103A10000108FFF7ABFCFFF755FEFFF787FC94F9B1
:103A20004400401C01D184F8449094F94500401CA6
:103A300001D184F84590FFF799FC04A9684600F08D
:103A400029F930B12046FFF743FB00F0A5FA00202A
:103A5000D4E7FFF76BFCA06BE16B884213D1FFF753
:103A600085FC04F110000499FFF7B4FD2046FFF730
:103A70002FFB00F091FA00289ED13E60BFF34F8FDC
:103A8000BFF36F8F98E7FFF771FC2046FFF720FB2D
:103A900000F082FA90E7000004ED00E02DE9F04725
:103AA0001F4690468946040003D0B9F1000F08D0A4
:103AB00011E0502080F31188BFF34F8FBFF36F8F59
:103AC000FEE7206C38B1502080F31188BFF34F8F90
:103AD000BFF36F8FFEE7022F0AD1E06B012807D0FA
:103AE000502080F31188BFF34F8FBFF36F8FFEE735
:103AF000FFF794FC5020EFF3118680F31188BFF399
:103B00004F8FBFF36F8FA06BE16B884206D3022FFC
:103B100004D0002086F31188BDE8F08794F9455061
:103B2000A06B3A4649462046FEF7EBFF681C04D0DE
:103B30006D1C84F845500120ECE7606A0028FAD03B
:103B400004F1240000F0F0F90028F4D0B8F1000FDF
:103B5000F1D00121C8F80010EDE700002DE9F7478A
:103B6000002683B08A46040003D0BAF1000F08D0C3
:103B700011E0502080F31188BFF34F8FBFF36F8F98
:103B8000FEE7206C38B1502080F31188BFF34F8FCF
:103B9000BFF36F8FFEE700F00FF9DFF8F4804FF00E
:103BA00000094FF0805748B9059838B1502080F38C
:103BB0001188BFF34F8FBFF36F8FFEE7FFF7B6FBA0
:103BC000A56BC5B151462046FEF788FF6D1EA56363
:103BD000206950B104F1100000F0A6F928B1C8F82E
:103BE0000070BFF34F8FBFF36F8FFFF7BFFB012054
:103BF00006B0BDE8F087059808B11EB106E0FFF7F2
:103C0000B5FB27E06846FFF7D7FC0126FFF7AEFBC0
:103C1000FFF758FDFFF78AFB94F94400401C01D1DF
:103C200084F8449094F94500401C01D184F84590F3
:103C3000FFF79CFB05A9684600F02CF800282046F9
:103C40000AD0FFF745FA00F0A7F92046FFF7D4F8AD
:103C50000028B3D00020CBE7FFF7CEF890B104F1F5
:103C600024000599FFF7B6FC2046FFF731FA00F073
:103C700093F90028A2D1C8F80070BFF34F8FBFF3AB
:103C80006F8F9BE72046FFF723FA00F085F995E751
:103C900004ED00E02DE9F0410C46050011D0C4B15F
:103CA000FFF744FB174BDA686E682068911B471CCE
:103CB00017D02F681B6A9F4219D0964217D801244B
:103CC00010E0502080F31188BFF34F8FBFF36F8F48
:103CD000FEE7502080F31188BFF34F8FBFF36F8F43
:103CE000FEE70024FFF742FB2046BDE8F081884252
:103CF00005D9401A20602846FFF75EFCF1E7002056
:103D00002060DCE7200000202DE9FF5F8346DDE92D
:103D10000E87994616468A469000FFF70FFA05006F
:103D20001CD05C20FFF70AFA040014D000202563A1
:103D300084F85900CDE90240CDE900874B46324670
:103D400051465846FEF796FF2046FEF733FE012007
:103D500004B0BDE8F09F2846FFF71CFB4FF0FF3092
:103D6000F6E7F0B585B0DDE90B640A9DA6B1DCB1DC
:103D70005C2700972663022684F85960002604AF6A
:103D8000CDE90246CDE90057FEF774FF2046FEF765
:103D900011FE049805B0F0BD502080F31188BFF3E8
:103DA0004F8FBFF36F8FFEE7502080F31188BFF372
:103DB0004F8FBFF36F8FFEE70548416919B1006B64
:103DC00018B10020704701207047022070470000A2
:103DD000200000200148C06870470000200000203B
:103DE0002DE9F0412E4C0027206B28B1A069401C22
:103DF000A0613846BDE8F081E668761CE66013D124
:103E0000606B006838B1502080F31188BFF34F8F8A
:103E1000BFF36F8FFEE7606BA16B6163A063206AE5
:103E2000401C2062FFF7D4F8A06ADFF87880864251
:103E300009D3606B0068A0B1606BC068C568686832
:103E4000864211D2A0622068C06A00EB800158F857
:103E50002100012800D90127E0690028C9D00127E5
:103E6000C7E74FF0FF30EDE7281DFFF703FAA86A18
:103E700018B105F11800FFF7FDF9E86A21698842D9
:103E800000D9206100EB800108EB8100291DFFF7BC
:103E900041FAE86A2168C96A8842CAD30127C8E79B
:103EA00020000020A001002070B504004FF00001A8
:103EB00033D01B4D2868844207D0502080F31188EE
:103EC000BFF34F8FBFF36F8FFEE7206D38B1401EF9
:103ED0002065E36CE26A9A421FD040B11DE0502099
:103EE00080F31188BFF34F8FBFF36F8FFEE7201D64
:103EF000FFF7C0F9E06CE062C0F13800A061E06A51
:103F00002969884200D92861064900EB800001EB4D
:103F10008000211DFFF7FEF90121084670BD000059
:103F200020000020A001002070B5C068C46854B112
:103F300004F118000646FFF79DF9144D286B50B1A7
:103F40003146134815E0502080F31188BFF34F8F9E
:103F5000BFF36F8FFEE7201DFFF78CF9E06A296938
:103F6000884200D928610B4900EB800001EB8000FA
:103F7000211DFFF7CFF9E06A2968C96A884202D992
:103F80000120E86170BD002070BD0000200000200D
:103F900028060020A00100202DE9F0472C4D002428
:103FA0002746286B38B1FFF7C1F9286B401E2863FC
:103FB000286B40B146E0502080F31188BFF34F8F4B
:103FC000BFF36F8FFEE7A968224E0120D1B3A6F59B
:103FD000916980463068E0B1F068C46804F1180067
:103FE000FFF748F9201DFFF745F9E06A2969884283
:103FF00000D9286100EB800109EB8100211DFFF74A
:1040000089F9E06A2968C96A8842E3D3C5F81C8047
:10401000E0E70CB1FEF7DCFFAC694CB14FEA0806F3
:10402000FFF7DEFE00B1EE61641EF9D10020A86149
:10403000E86938B10849012738070860BFF34F8F96
:10404000BFF36F8FFFF792F93846BDE8F0870000A5
:10405000200000202806002004ED00E02DE9FC47A8
:1040600081461E46174688462C200A9DFFF766F8B3
:1040700004000AD0002084F82800CDE9005433461B
:104080003A4641464846FEF74DFE2046BDE8FC87CD
:1040900010B586B0FEF7F6FC114C2068B8B10020D0
:1040A0000390049005AA04A903A8FFF701F9DDE92C
:1040B000032102208DE8070000230AA10B48059A7E
:1040C000FFF74FFE606010B106B0012010BD502018
:1040D00080F31188BFF34F8FBFF36F8FFEE70000AF
:1040E0005C000020546D722053766300AD300008F0
:1040F0002DE9FF411E46134602000A9D4FF00000C5
:1041000016D0144C2768002F0FD0CDE9001302926F
:10411000062917DAFFF750FE02284FF000030FD0F0
:10412000002269462068FFF709FC04B0BDE8F08171
:10413000502080F31188BFF34F8FBFF36F8FFEE7DE
:104140002A46EEE70023324669463846FFF7A6FCCA
:10415000EBE700005C000020F849000800000000C8
:10416000000000000000000000000000000200004D
:10417000180000000000000000000000010202031F
:104180000405060708090A0B0C0D0E0F101000009D
:1041900000000000000001020304060708090000F7
:1041A0000000010203040000000000000000000005
:1041B000000000000000000000F800000000000007
:1041C00000333000000000160E00160E0000000044
:1041D00000000000000040C07840C0784000043F6C
:1041E00004043F040400007088FC0830000000183C
:1041F00020FF211E0000F008F000E0180000002160
:104200001C031E211E0000F00888700000001E2103
:10421000232419272110000000160E0000000000C2
:10422000000000000000000000E018040200000090
:1042300000071820400000020418E00000000040C1
:10424000201807000000404080F08040400002023B
:10425000010F01020200000000F000000000010157
:10426000011F01010100000000000000000000B07B
:1042700070000000000000000000000000000001CD
:1042800001010101010100000000000000000030F8
:104290003000000000000000000080601804006092
:1042A00018060100000000E010080810E000000FF0
:1042B000102020100F00001010F800000000002057
:1042C000203F20200000007008080888700000309F
:1042D0002824222130000030088888483000001847
:1042E000202020110E000000C02010F80000000760
:1042F0000424243F240000F80888880808000019D6
:10430000212020110E0000E0108888180000000F06
:10431000112020110E0000380808C83808000000DD
:10432000003F000000000070880808887000001C32
:10433000222121221C0000E010080810E0000000EB
:10434000312222110F00000000C0C0000000000058
:10435000003030000000000000C0C000000000007D
:1043600080B07000000000008040201008000001B4
:104370000204081020004040404040404000040437
:104380000404040404000008102040800000002001
:10439000100804020100007048080808F00000003E
:1043A000003036010000C030C828E810E0000718CF
:1043B000272423140B000000C038E0000000203C3C
:1043C00023020227382008F8888888700000203FE0
:1043D000202020110E00C0300808080838000718F7
:1043E00020202010080008F808080810E000203FEE
:1043F000202020100F0008F88888E8081000203FCF
:1044000020202320180008F88888E8081000203FA2
:10441000200003000000C03008080838000007181A
:104420002020221E020008F808000008F808203F9B
:10443000210101213F20000808F8080800000020A1
:10444000203F2020000000000808F8080800C08075
:1044500080807F00000008F888C028180800203FEE
:1044600020012638200008F8080000000000203F46
:1044700020202020300008F8F800F8F80800203F3D
:10448000003F003F200008F830C00008F808203F37
:10449000200007183F00E01008080810E0000F1087
:1044A000202020100F0008F808080808F000203F1E
:1044B000210101010000E01008080810E0000F18B9
:1044C000242438504F0008F8888888887000203FDE
:1044D0002000030C302000708808080838000038DD
:1044E000202121221C00180808F8080818000000E4
:1044F000203F2000000008F808000008F808001F0E
:10450000202020201F000878880000C838080000FC
:1045100007380E010000F80800F80008F800033C16
:104520000700073C030008186880806818082030DE
:104530002C03032C30200838C800C83808000000BD
:10454000203F2000000010080808C8380800203864
:10455000262120201800000000FE020202000000B8
:10456000007F40404000000C30C000000000000010
:1045700000010638C00000020202FE0000000040F8
:1045800040407F00000000201008040810200000B8
:10459000000000000000000000000000000080801B
:1045A00080808080808000020408000000000000FD
:1045B00000000000000000008080808000000019E2
:1045C000242222223F2008F8008080000000003FC3
:1045D000112020110E000000008080800000000EDD
:1045E000112020201100000000808088F800000EBB
:1045F000112020103F200000808080800000001FDC
:10460000222222221300008080F08888881800204F
:10461000203F202000000000808080808000006B10
:1046200094949493600008F8008080800000203FFC
:10463000210000203F20008098980000000000200A
:10464000203F20200000000000809898000000C05B
:104650008080807F000008F8000080808000203F7C
:1046600024022D302000000808F80000000000207F
:10467000203F202000008080808080808000203FBC
:1046800020003F20003F008080008080000000204C
:104690003F2100203F200000808080800000001F1C
:1046A000202020201F00808000808000000080FFEC
:1046B000A12020110E000000008080808000000EEC
:1046C000112020A0FF80808080008080800020203A
:1046D0003F212000010000008080808080000033A6
:1046E000242424241900008080E080800000000041
:1046F000001F202000008080000000808000001F3C
:10470000202020103F2080808000008080800001D9
:104710000E300806010080800080008080800F300D
:104720000C030C300F00008080008080800000208F
:10473000312E0E31200080808000008080808081BA
:104740008E7018060100008080808080800000212B
:10475000302C2221300000000000807C020200008A
:104760000000003F404000000000FF00000000008B
:104770000000FF0000000002027C800000000040FA
:10478000403F0000000000804040800000800000AA
:104790000000000101000000000000000000002FE8
:1047A000000000000700070000147F147F1400249D
:1047B0002A7F2A12002313086462003649552250CA
:1047C00000000007000000001C2241000000412200
:1047D0001C000014083E08140008083E08080000E9
:1047E00000A06000000808080808000060600000E1
:1047F000002010080402003E5149453E0000427F5F
:104800004000004261514946002141454B310018AA
:1048100014127F10002745454539003C4A4949306C
:104820000001710905030036494949360006494926
:10483000291E000036360000000056360000000831
:10484000142241000014141414140000412214080E
:10485000000201510906003E4955592E007C1211F3
:10486000127C007F49494936003E41414122007F88
:104870004141221C007F49494941007F0909090142
:10488000003E4149497A007F0808087F0000417FC7
:104890004100002040413F01007F08142241007F79
:1048A00040404040007F020C027F007F0408107FE0
:1048B000003E4141413E007F09090906003E415149
:1048C000215E007F09192946004649494931000106
:1048D000017F0101003F4040403F001F2040201F5A
:1048E000003F4038403F006314081463000708701D
:1048F000080700615149454300007F414100000223
:1049000004081020000041417F000004020102045D
:104910000040404040400000010204000020545488
:104920005478007F484444380038444444200038D8
:104930004444487F00385454541800087E0901024A
:104940000018A4A4A47C007F080404780000447D1F
:104950004000004080847D00007F1028440000005B
:10496000417F4000007C04180478007C080404782F
:1049700000384444443800FC24242418001824241B
:1049800018FC007C08040408004854545420000417
:104990003F444020003C4040207C001C2040201C24
:1049A000003C4030403C004428102844001CA0A09B
:1049B000A07C004464544C440000087F4100000087
:1049C000007F00000000417F080000080408100874
:1049D000FF0101013109090909897101010101FF83
:1049E000FF8080808080809681808080808080FFB2
:1049F000000000000000000064656661756C74547E
:104A000061736B00244A000800000020D000000001
:104A100028010008F44A0008D0000020F825000012
:104A20004401000800000000000000000000000039
:104A30000000000001000000100000000000000065
:104A400000127A00000000000000000000000000DA
:104A50000000000000000000000000000000000056
:104A60000000000000000000000000000000000046
:104A70000000000000000000000000000000000036
:104A80000000000000000000000000000000000026
:104A90000000000000000000000000000000000016
:104AA0000000000000000000000000000000000006
:104AB000000000000000000000000000AAAAAAAA4E
:104AC000000000000000000000080140010000009C
:104AD000000000000008014002000000000000008B
:104AE00000000000000000000000000000000000C6
:044AF00000000000C2
:04000005080000ED02
:00000001FF
